:100000000C9476000C9495110C94BC110C949E00E9
:100010000C949E000C949E000C94D0020C94E71853
:100020000C949E000C949E000C949E000C949E00D8
:100030000C949E000C949E000C949E000C949E00C8
:100040000C94E3110C949E000C94C7140C94F914B6
:100050000C949E000C949E000C949E000C949E00A8
:100060000C9447100C949E001F033C038103FD0376
:1000700034043B045004CE048905A505580D0C0E2C
:10008000720D970DC30DEF0DFD0D0000000800026D
:10009000010000030407000000000000000001024E
:1000A0000408102040800102040810200102040806
:1000B00010200404040404040404020202020202E4
:1000C00003030303030300000000230026002900AC
:1000D00000000000250028002B0000000000240084
:1000E00027002A000200B1055D0F291511241FBE4B
:1000F000CFEFD8E0DEBFCDBF11E0A0E0B1E0EAE98C
:10010000F3E302C005900D92A63DB107D9F723E0B5
:10011000A6EDB1E001C01D92A738B207E1F710E0EB
:10012000CCEED0E004C02297FE010E949719C63E93
:10013000D107C9F70E9444190C94CB190C94000004
:100140001F93CF93DF931F92CDB7DEB7162F6CE4CA
:1001500070E08CE092E049830E94DE0E612F8CE01B
:1001600092E00E94780E4981642F8CE092E00E9418
:10017000780E8CE092E00F90DF91CF911F910C945C
:100180005A0FCF93DF93EC0140E067E00E94A0009C
:1001900041E868E0CE010E94A00042E060E2CE01AA
:1001A0000E94A00040E066E0CE010E94A00040E076
:1001B00069E0CE010E94A00042E06AE0CE010E9408
:1001C000A00042E06BE0CE010E94A00042E06CE0A3
:1001D000CE010E94A00041E067E0CE01DF91CF9107
:1001E0000C94A000CF93C62F6CE470E08CE092E0FA
:1001F0000E94DE0E6C2F8CE092E00E94780E8CE064
:1002000092E00E945A0F41E050E06CE470E08CE014
:1002100092E00E94570F8CE092E00E94200E892B02
:1002200029F08CE092E0CF910C94280E8FEF90E0B3
:10023000CF910895AF92BF92CF92DF92EF92FF924B
:100240000F931F93CF93DF93EC016B017A01890128
:100250006CE470E08CE092E00E94DE0EE0910C0213
:10026000F0910D020190F081E02D6DE08CE092E0C4
:1002700009958CE092E00E945A0F46E050E06CE451
:1002800070E08CE092E00E94570F8CE092E00E94B8
:10029000200E892B99F18CE092E00E94280E5C01DF
:1002A0008CE092E00E94280EE0E0F0E0F82FEA0DEA
:1002B000FB1DD601ED93FC938CE092E00E94280E8A
:1002C0006C018CE092E00E94280E60E070E0782FD4
:1002D0006C0D7D1DF701718360838CE092E00E94BC
:1002E000280E7C018CE092E00E94280E40E050E055
:1002F000582F4E0D5F1DD8014D935C9363E0CE01E6
:10030000DF91CF911F910F91FF90EF90DF90CF90F1
:10031000BF90AF900C94F20083B78E7F83BFE4E66A
:10032000F0E0808180718083E0E6F0E080818F7B67
:10033000808386E08093090268E071E085ED92E0B9
:100340000E94B71562E370E080E090E00C945C12CC
:10035000CF93DF9381E090E00E94B519CAE0D2E02C
:10036000888382E090E00E94B5198983CE01DF91F5
:10037000CF910895EF92FF920F931F93CF93DF9346
:100380001F92CDB7DEB77C01FC0100811181C8014D
:1003900069830E94B5196981681719F0C8010E9424
:1003A000BD19C7010F90DF91CF911F910F91FF9061
:1003B000EF900895CF93DF9300D0CDB7DEB726E05E
:1003C00040E855E260E070E085ED92E00E946B1439
:1003D00062E971E085ED92E00E94B71566E171E097
:1003E00085ED92E00E94B71561E371E085ED92E042
:1003F0000E94B71566E171E085ED92E00E94B715A5
:1004000061E088E00E94F01261E089E00E94F01251
:1004100062E082E00E94F01289E08093FA010E947B
:10042000A8016CE471E085ED92E00E94AA1560914C
:100430000A0270910B024AE050E085ED92E00E94C2
:100440006C1680910A0290910B029C012150310997
:10045000273E334028F181E090E09A8389836EE55E
:10046000CE0101960E94BA0182E090E09A838983CE
:1004700061E0CE0101960E94BA010E94A80165E6E2
:1004800071E085ED92E00E94AA1560910A027091D8
:100490000B024AE050E085ED92E00E946C1604C029
:1004A000909302018093010164E871E085ED92E090
:1004B0000E94AA1560910101709102014AE050E08A
:1004C00085ED92E00E9491168CE092E00E94B70EBA
:1004D00040E553EC60E070E08CE092E00E94C10ED9
:1004E00086ED91E00E94C10026EE31E048EE51E039
:1004F0006AEE71E086ED91E00E941A018091EA01B6
:100500009091EB019093E5018093E4018091E801E3
:100510009091E9019093E3018093E2018091E601DB
:100520009091E7019093E1018093E00161E08EEE0C
:1005300091E00E949F0A82E390E09093F101809302
:10054000F00140E25EE460E070E08EEE91E00E9437
:100550002B0960E08AEF91E00E94460D83E08093D2
:10056000090280917C008F7380937C0080917A00D7
:100570008F7780937A0084B7877F84BF80916000F3
:1005800088618093600080E28093600080916000C9
:100590008064809360000F900F90DF91CF91089559
:1005A0001F920F920FB60F9211248F93EF93FF9328
:1005B00083B78E7F83BFE4E6F0E080818071808323
:1005C000E0E6F0E080818F7B8083FF91EF918F9157
:1005D0000F900FBE0F901F90189543E050E06CE80D
:1005E00071E081E00E94751183B7817F846083BFD1
:1005F00083B7816083BFE0E6F0E080818064808320
:1006000083B7816083BF889583B78E7F83BF08954A
:100610000F931F93CF93DF9300D0CDB7DEB78091B8
:100620000902992787FD9095A92FB92F8A30910546
:1006300008F090C2FC01EC5CFF4F0C94951986ED1C
:1006400091E00E94C10061E08EEE91E00E949F0A5D
:1006500082E390E09093F1018093F00140E25EE448
:1006600060E070E08EEE91E00E942B091092D801BC
:100670001092D70183E066C226EE31E048EE51E0E9
:100680006AEE71E086ED91E00E941A018091EA0124
:100690009091EB012091E4013091E501821B930BD5
:1006A00097FF03C09195819591099093DF01809305
:1006B000DE018091E8019091E9012091E201309101
:1006C000E301821B930B97FF03C0919581959109DC
:1006D0009093DD018093DC018091E6019091E70128
:1006E0002091E0013091E101821B930B97FF03C041
:1006F0009195819591099093DB018093DA0182E0D5
:1007000021C28091E6019091E70197FF03C0919586
:100710008195910920910001C39794F48091E8019B
:100720009091E901883D3FEF930754F08C3E9F4F35
:10073000A4F48091EA019091EB01883D9F4F6CF405
:100740001092D901213009F0FCC11092000163E040
:100750008AEF91E00E94460DF4C18091DE019091F4
:10076000DF0105972CF58091DC019091DD01059763
:10077000FCF48091DA019091DB010597CCF4809133
:10078000D90183326CF01092D901213009F0E2C115
:100790001092000163E08AEF91E00E94460DDAC1F9
:1007A0008F5F8093D901213009F0CBC185E0CAC1A8
:1007B000211108C081E08093000164E08AEF91E09C
:1007C0000E94460D8091EA019091EB019093E50122
:1007D0008093E4018091E8019091E9019093E30115
:1007E0008093E2018091E6019091E7019093E1010D
:1007F0008093E0011092D901A4C110910001113041
:10080000C1F58EEE91E00E9483089093ED018093F4
:10081000EC01209101013091020182179307E8F465
:100820002091D7013091D80137FD06C01092D80130
:100830001092D70184E086C18B3F9F4F38F064E966
:1008400071E085ED92E00E94B71584C12F5F3F4FA4
:100850003093D8012093D70104C01092D801109290
:10086000D7011093090276C162E08AEF91E00E94FD
:10087000460D81E067C161E088E00E94291384EFA2
:1008800091E00E94841260E088E00E942913109297
:10089000050210920602109207021092080251C13E
:1008A00061E08AEF91E00E94460D809105029091EF
:1008B0000602A0910702B0910802892B8A2B8B2B8C
:1008C00009F048C183E00E945F130197D9F30E94A9
:1008D0002D12609305027093060280930702909395
:1008E000080283E00E945F13892BD9F40E942D1225
:1008F0000091050210910602209107023091080232
:10090000601B710B820B930B6093010270930202C8
:1009100080930302909304026D327140810591052A
:1009200000F38091010290910202A0910302B09124
:1009300004028D329140A105B10570F061EA71E0C9
:1009400085ED92E00E94B71565E070E080E090E0F0
:100950000E945C1289E017C061E08AEF91E00E947A
:10096000460D83E00E945F130197D9F363EA71E0BB
:1009700085ED92E00E94B71565E070E080E090E0C0
:100980000E945C1287E08093090210920502109287
:1009900006021092070210920802DCC065E08AEF9E
:1009A00091E00E94460D0E942D1260930102709307
:1009B0000202809303029093040283E00E945F137B
:1009C000892B09F044C08EEE91E00E948308909339
:1009D000FC018093FB0161E08AEF91E00E94460DEB
:1009E0006091FB017091FC01653F41E074072CF0C0
:1009F00064EF71E080E090E004C0882777FD809587
:100A0000982F0E945C120E942D12009101021091F9
:100A100002022091030230910402601B710B820BD1
:100A2000930B6093FD017093FE018093FF019093FF
:100A3000000261327E448105910508F4BECF66E074
:100A40008AEF91E00E94460D89E0809309020E949E
:100A50002D1260930102709302028093030290931F
:100A6000040261E08AEF91E00E94460D83E00E945B
:100A70005F13019701F50E942D1200910102109160
:100A800002022091030230910402601B710B820B61
:100A9000930B693B7B408105910540F360E08AEF51
:100AA00091E00E94460D66E08AEF91E00E94460DBB
:100AB00088E0809309028091FD019091FE01A09150
:100AC000FF01B091000281329E44A105B10508F0FA
:100AD00041C0809109028830E9F166E08AEF91E037
:100AE0000E94460D6091FB018091FC016093010121
:100AF0008093020181E090E09A838983CE01019680
:100B00000E94BA016091FC0182E090E09A8389839F
:100B100014C08EE591E0909302018093010181E081
:100B200090E09A8389836EE5CE0101960E94BA0116
:100B300082E090E09A83898361E0CE0101960E9471
:100B4000BA0189E08093090205C083E0809309021D
:100B50000E94ED020F900F90DF91CF911F910F91A6
:100B600008958AEF91E00E94420D8EEE91E00C9480
:100B7000C005DC01ED91FC910190F081E02D09941C
:100B8000FC0189E2818313821282148208959C0100
:100B9000332702C0220F331F9A95E2F7C90101964D
:100BA00008950F931F930097C9F0AC01415051096C
:100BB00060E070E080E090E08A019B010027012B5B
:100BC000022B032B31F07695679557954795019643
:100BD000F3CF982F8827842B952B02C080E090E0DC
:100BE0001F910F9108958F929F92AF92BF92CF92D3
:100BF000DF92EF92FF92CF93DF93EC01A62FB0E04C
:100C000020E03FE24AE350E00E949B196C507E4F87
:100C10008F4F9F4F48EE842E43E0942EA12CB12C91
:100C2000A50194010E94541969017A01F694E79490
:100C3000D794C794DE010E949B19C60ED71EE81EEA
:100C4000F91EC701B601A50194010E945419CA01F9
:100C5000B901DF91CF91FF90EF90DF90CF90BF90DF
:100C6000AF909F908F9008954F925F926F927F9276
:100C70008F929F92AF92BF92CF92DF92EF92FF92AC
:100C80002B013C01A42FB0E020E03FE24AE350E01A
:100C90000E949B196C507E4F8F4F9F4F28EE33E080
:100CA00040E050E00E94541949015A0169017A015B
:100CB000F694E794D794C794A8EEB3E0A301920109
:100CC0000E949B19C60ED71EE81EF91EC701B60169
:100CD000A50194010E945419CA01B901FF90EF9037
:100CE000DF90CF90BF90AF909F908F907F906F904C
:100CF0005F904F900895EF92FF921F93CF93DF93F1
:100D00001F92CDB7DEB77C01162FFC0161818CE00C
:100D100092E049830E94D40E612F8CE092E00E9401
:100D2000780E4981642F8CE092E00E94780E8CE06E
:100D300092E00E945A0FF70180830F90DF91CF91CC
:100D40001F91FF90EF900895FF920F931F93CF9301
:100D5000DF938C01F62EEA01FC0161818CE092E0C8
:100D60000E94D40E6F2D8CE092E00E94780E6D2FC1
:100D700070E08CE092E00E94B905BE0177278CE01C
:100D800092E00E94B9058CE092E00E945A0FF801AF
:100D90008083DF91CF911F910F91FF900895CF92A3
:100DA000DF92FF920F931F93CF93DF9300D0CDB7C5
:100DB000DEB78C01D62EF22EFC0161818CE092E030
:100DC00049835A830E94D40E6D2D8CE092E00E94DC
:100DD000780E4981C42E5A81D52EF40EFC1441F0B0
:100DE000F60161916F018CE092E00E94780EF6CFDF
:100DF0008CE092E00E945A0FF80180830F900F90D0
:100E0000DF91CF911F910F91FF90DF90CF900895C8
:100E10001F93CF93DF93EC01162F69818CE092E052
:100E20000E94D40E612F8CE092E00E94780E8CE03C
:100E300092E00E945A0F888341E069818CE092E041
:100E40000E94540F8CE092E00E94280EDF91CF9117
:100E50001F910895EF92FF920F931F93CF93DF930B
:100E6000EC018B017A0141E060E80E947B0641E0E1
:100E70006FEFCE010E947B0640E060E0CE010E9451
:100E80007B0646E06FEFCE010E947B0663E8CE0151
:100E90000E940807482F446063E8CE010E947B0649
:100EA00047E06FEFCE010E947B0641E061E8CE0192
:100EB0000E947B0641E060E8CE010E947B064BE683
:100EC00064E9CE010E947B0640E063E8CE010E9407
:100ED0007B060E942D127E836D8363E8CE010E9403
:100EE0000807811111C08A819B81892BB1F30E946F
:100EF0002D122D813E81621B730B8A819B81861787
:100F0000970758F780E03BC041E063E8CE010E94BC
:100F10007B0662E9CE010E940807982F9F77F801AF
:100F20009083982F991F9927991FF701908340E08C
:100F300061E8CE010E947B0646E06FEFCE010E9481
:100F40007B0663E8CE010E940807482F63E8CE01C4
:100F50000E947B0641E06FEFCE010E947B0641E0DC
:100F600060E0CE010E947B0640E06FEFCE010E9460
:100F70007B0640E060E8CE010E947B0681E0DF91C5
:100F8000CF911F910F91FF90EF900895CF93DF9332
:100F9000EB0161E00E94080784FB992790F9988390
:100FA00083FB992790F99A8382FB992790F999837B
:100FB00086FB992790F99B83982F991F9927991F52
:100FC0009C83DF91CF910895CF93DF93EC01462F5F
:100FD000416060E00E947B060E942D127E836D833B
:100FE00063E1CE010E940807877089F48A819B81A2
:100FF000892BB1F30E942D122D813E81621B730B50
:101000008A819B818617970758F780E00BC041E0E3
:101010006BE0CE010E947B0640E060E0CE010E94C2
:101020007B0681E0DF91CF9108956115710511F480
:1010300060E504C06130710531F460E70E94080783
:101040008F5F880F08958FEF08951F93CF93DF93DD
:10105000EC01162F69818CE092E00E94D40E612F82
:101060008CE092E00E94780E8CE092E00E945A0F91
:10107000888342E069818CE092E00E94540F8CE00A
:1010800092E00E94280ED82F80E0C82F8CE092E0DA
:101090000E94280E8C2B9D2BDF91CF911F910895DC
:1010A0000F931F93CF93DF93EC010E942D127E8349
:1010B0006D8363E1CE010E9408078770A1F48A81E5
:1010C0009B81892BB1F30E942D122D813E81621BE1
:1010D000730B8A819B818617970758F781E08C8371
:1010E0008FEF9FEF0BC06EE1CE010E9425088C01AF
:1010F00041E06BE0CE010E947B06C801DF91CF91F9
:101100001F910F910895CF93DF93EC0141E060E8C8
:101110000E947B0641E06FEFCE010E947B0640E01B
:1011200060E0CE010E947B064F8161E9CE010E9402
:101130007B0641E060E0CE010E947B0640E06FEF5D
:10114000CE010E947B0640E060E8CE010E947B0653
:1011500041E060E0CE010E947B060E942D127E835A
:101160006D8360E0CE010E94080780FF16C08A816F
:101170009B81892BB1F30E942D122D813E81621B30
:10118000730B8A819B818617970758F781E08C83C0
:101190008FEF9FEFDF91CF910895CE01DF91CF9137
:1011A0000C945008EF92FF920F931F93CF93DF930D
:1011B0008C017B01EA0160E070E00E94150890E07C
:1011C0009983888366E4C8010E94080790E001962D
:1011D0009D838C8368810E94F3056A877B878C8757
:1011E0009D8761E5C8010E9425080E94C7059F836D
:1011F0008E8368810E94F3056E877F87888B998B29
:1012000060E7C8010E9408078F5F880F90E09B830A
:101210008A8361E7C8010E9425080E94C705998753
:101220008887F7012381222331F02E813F81821BA1
:10123000930B998788876A81888599850E94F30531
:101240006A8B7B8B8C8B9D8BDF91CF911F910F9144
:10125000FF90EF9008958F929F92AF92BF92CF929E
:10126000DF92EF92FF920F931F93CF93DF93CDB74F
:10127000DEB76B970FB6F894DEBF0FBECDBF7C0113
:101280004A015B01483E83E058076105710508F497
:101290007AC0BE01695E7F4FC7010E94C607AE01DA
:1012A0004F5F5F4FBE01695E7F4FC7010E94D2084A
:1012B0008F89882349F00B851C852D853E850A5C26
:1012C000144F2F4F3F4F04C008EE18E020E030E0ED
:1012D000898D882369F08B859C85AD85BE858E546C
:1012E0009D4FAF4FBF4F880F991FAA1FBB1F0BC049
:1012F000888D882361F08B859C85AD85BE858C5655
:101300009D4FAF4FBF4F080F191F2A1F3B1FDA8C8D
:10131000DD2061F08F859889A989BA898C569D4F07
:10132000AF4FBF4F080F191F2A1F3B1FCB8CCC207C
:1013300039F10A5D1D4F2F4F3F4F80169106A206CF
:10134000B30608F1C501B401601B710B820B930B4E
:101350004B810E9434069B01DD2021F02F813885CE
:10136000260F371FC9010E94D105AC0161E7C701F3
:101370000E94A406F70180869186A286B38604C0E7
:10138000CC24C39401C0C12C8C2D6B960FB6F8945D
:10139000DEBF0FBECDBFDF91CF911F910F91FF90A8
:1013A000EF90DF90CF90BF90AF909F908F90089577
:1013B000CF92DF92EF92FF920F931F93CF93DF9321
:1013C000CDB7DEB76B970FB6F894DEBF0FBECDBFBB
:1013D0008C01BE01695E7F4F0E94C607AE014F5F60
:1013E0005F4FBE01695E7F4FC8010E94D2088F899E
:1013F000882349F06B857C858D859E856C57724F5F
:101400008F4F9F4F04C066E37BE080E090E0298D22
:10141000222379F0CB84DC84ED84FE8422EBC20E9F
:1014200022E0D21EE11CF11CCC0CDD1CEE1CFF1CCA
:101430000DC0288D222371F0CB84DC84ED84FE84E2
:10144000E4E9CE0EE2E0DE1EE11CF11C6C0D7D1D18
:101450008E1D9F1D2A8D222371F0CF84D888E988A4
:10146000FA88F4E9CF0EF2E0DF1EE11CF11C6C0DEE
:101470007D1D8E1D9F1D2B8D222371F0CB88DC8856
:10148000ED88FE8826E2C20E22E0D21EE11CF11C8D
:101490006C0D7D1D8E1D9F1DF801608771878287F1
:1014A00093876B960FB6F894DEBF0FBECDBFDF916A
:1014B000CF911F910F91FF90EF90DF90CF90089503
:1014C000CF92DF92EF92FF920F931F93CF93DF9310
:1014D0001F92CDB7DEB76C01F62E042F122FFC0140
:1014E00061818CE092E059830E94D40E6F2D8CE0D4
:1014F00092E00E94780E8CE092E00E945A0FF60172
:101500008083412F61818CE092E00E94540FE02E95
:101510005981F52E100F1E1541F08CE092E00E94CB
:10152000280EF70181937F01F6CF0F90DF91CF91C5
:101530001F910F91FF90EF90DF90CF900895FF9251
:101540000F931F93CF93DF93CDB7DEB728970FB6D6
:10155000F894DEBF0FBECDBF8C01662349F069E869
:101560000E940807482F416069E8C8010E947B0675
:1015700040E068E8C8010E947B0641E060E8C801DD
:101580000E947B0641E06FEFC8010E947B0640E0AD
:1015900060E0C8010E947B0661E9C8010E9408075B
:1015A000F801878341E060E0C8010E947B0640E0CB
:1015B0006FEFC8010E947B0640E060E8C8010E940E
:1015C0007B0660E6C8010E940807482F426160E67A
:1015D000C8010E947B0640E250E064E4C8010E941A
:1015E000A4064FEF61E0C8010E947B06AE01495F8F
:1015F0005F4FBE01685F7F4FC8010E942A078111BB
:1016000002C0F12C32C226E0AE014F5F5F4F60EBAB
:10161000C8010E94600A41E06FEFC8010E947B068A
:1016200040E06FE4C8010E947B064CE26EE4C80112
:101630000E947B0640E06FEFC8010E947B0644EBEE
:1016400066EBC8010E947B068F81882311F06CE055
:1016500001C060E0A88540E050E021E030E0842F48
:10166000869586958695742F7770E1E0F0E0EC0F13
:10167000FD1FE80FF11D461710F05A130BC0C901EA
:10168000072E01C0880F0A94EAF78095908189237C
:10169000808309C0808190E002C0959587957A95F6
:1016A000E2F780FD5F5F4F5F4033C9F626E0AE0191
:1016B0004F5F5F4F60EBC8010E94CF0641E06FEFC4
:1016C000C8010E947B0640E060E0C8010E947B06E2
:1016D00040E06FEFC8010E947B0640E069E0C8016E
:1016E0000E947B0640E060E1C8010E947B0640E06A
:1016F00061E1C8010E947B0641E064E2C8010E94EA
:101700007B064FEF65E2C8010E947B0640E065E77B
:10171000C8010E947B0641E06FEFC8010E947B0672
:101720004CE26EE4C8010E947B0640E068E4C80118
:101730000E947B0640E260E3C8010E947B0640E015
:101740006FEFC8010E947B0649E060E3C8010E9478
:101750007B0640E064E5C8010E947B0644E061E34B
:10176000C8010E947B0643E062E3C8010E947B0639
:1017700043E860E4C8010E947B0645E266E4C801D4
:101780000E947B0640E060E6C8010E947B0640E0C4
:1017900067E2C8010E947B0646E060E5C8010E943E
:1017A0007B0640E061E5C8010E947B0646E962E5F0
:1017B000C8010E947B0648E066E5C8010E947B06DE
:1017C00040E367E5C8010E947B0640E061E6C8018E
:1017D0000E947B0640E062E6C8010E947B0640E072
:1017E00064E6C8010E947B0640E065E6C8010E94ED
:1017F0007B0640EA66E6C8010E947B0641E06FEF87
:10180000C8010E947B0642E362E2C8010E947B0697
:1018100044E167E4C8010E947B064FEF69E4C80118
:101820000E947B0640E06AE4C8010E947B0640E01B
:101830006FEFC8010E947B064AE06AE7C8010E9478
:101840007B0640E06BE7C8010E947B0641E268E747
:10185000C8010E947B0641E06FEFC8010E947B0631
:1018600044E363E2C8010E947B0640E062E4C801F1
:101870000E947B064FEF64E4C8010E947B0646E2AB
:1018800065E4C8010E947B0645E066E4C8010E9449
:101890007B0640E460E4C8010E947B0646E06EE0FF
:1018A000C8010E947B064AE160E2C8010E947B06F3
:1018B00040E463E4C8010E947B0640E06FEFC8018A
:1018C0000E947B0643E064E3C8010E947B0644E477
:1018D00065E3C8010E947B0641E06FEFC8010E94EA
:1018E0007B0644E061E3C8010E947B0649E06BE4AB
:1018F000C8010E947B0645E06CE4C8010E947B069B
:1019000044E06DE4C8010E947B0640E06FEFC8012F
:101910000E947B0640E064E4C8010E947B0640E22E
:1019200065E4C8010E947B0648E067E4C8010E94A4
:101930007B0648E268E4C8010E947B0640E067E657
:10194000C8010E947B0644E060E7C8010E947B0654
:1019500041E061E7C8010E947B064EEF62E7C801E3
:101960000E947B0640E066E7C8010E947B0640E0DB
:1019700067E7C8010E947B0641E06FEFC8010E9443
:101980007B0641E06DE0C8010E947B0640E06FEFFE
:10199000C8010E947B0641E060E8C8010E947B0606
:1019A00048EF61E0C8010E947B0641E06FEFC8018B
:1019B0000E947B0641E06EE8C8010E947B0641E080
:1019C00060E0C8010E947B0640E06FEFC8010E9402
:1019D0007B0640E060E8C8010E947B0644E06AE0C4
:1019E000C8010E947B0664E8C8010E940807482FCE
:1019F0004F7E64E8C8010E947B0641E06BE0C801AD
:101A00000E947B06C8010E94D809F801608771878F
:101A10008287938748EE61E0C8010E947B06F80147
:101A20004085518562857385C8010E942B0941E07C
:101A300061E0C8010E947B0660E4C8010E94E407DF
:101A4000882309F4DECD42E061E0C8010E947B06F4
:101A500060E0C8010E94E407F82E882309F4D1CD84
:101A600048EE61E0C8010E947B068F2D28960FB6D4
:101A7000F894DEBF0FBECDBFDF91CF911F910F91C4
:101A8000FF90089522E0FC0120830895CF93DF9317
:101A9000EC01462F552747FD5095652F752F473090
:101AA000510508F0CAC0FA01E25CFF4F0C94951989
:101AB00024E630E040E050E067E174E088810E9475
:101AC000A71668E770E080E090E00E945C1224E6D0
:101AD00030E040E050E067E174E08881DF91CF9131
:101AE0000C94A71624E630E040E050E060E276E097
:101AF00088810E94A71668E770E080E090E00E946D
:101B00005C1224E630E040E050E060E276E088815C
:101B10000E94A71668E770E080E090E00E945C12E7
:101B200024E630E040E050E060E276E07BC02CE26A
:101B300031E040E050E063E972E088810E94A7163E
:101B40006CE271E080E090E00E945C1220E931E0FC
:101B500040E050E06BE472E088810E94A71660E9E3
:101B600071E080E090E00E945C1224EF31E040E000
:101B700050E06BE072E088810E94A71664EF71E08C
:101B800080E090E056C028EC30E040E050E06BE0B0
:101B900072E088810E94A71668EC70E080E090E017
:101BA0000E945C1228EC30E040E050E06BE472E010
:101BB00088810E94A71668EC70E080E090E00E94A7
:101BC0005C1228EC30E040E050E063E972E088818C
:101BD0000E94A71668EC70E080E090E02AC02CE23A
:101BE00031E040E050E067E174E088810E94A71690
:101BF00060E971E080E090E01CC02CE231E040E060
:101C000050E067E174E088810E94A7166CE271E001
:101C100080E090E00E945C1224E630E040E050E07A
:101C200067E174E088810E94A71668E770E080E0B1
:101C300090E0DF91CF910C945C12DF91CF910895E9
:101C400080913C0290E020913D02821B9109089511
:101C500020913D0280913C02281750F4E22FF0E0E1
:101C6000E25CFD4F808190E02F5F20933D0208955C
:101C70008FEF9FEF0895E0913D0280913C02E817BD
:101C800030F4F0E0E25CFD4F808190E008958FEF4A
:101C90009FEF08950895CF92DF92EF92FF920F93F6
:101CA0001F93CF93DF937C01CB018A01209118020F
:101CB000222389F0EB016B01C40ED51ECC15DD0586
:101CC00069F06991D701ED91FC910190F081E02DCF
:101CD000C7010995F3CF642F0E941E10C801DF9140
:101CE000CF911F910F91FF90EF90DF90CF900895CB
:101CF000CF93DF931F92CDB7DEB76983209118028F
:101D00002223D1F020911902203240F021E030E06E
:101D1000FC013383228380E090E015C080911A0299
:101D2000E82FF0E0E55EFD4F998190838F5F80930F
:101D30001A028093190205C061E0CE0101960E944B
:101D40001E1081E090E00F90DF91CF910895FC018B
:101D50001382128248EE53E060E070E044835583C2
:101D60006683778389EA91E0918380830895109256
:101D70003D0210923C0210921A02109219020C9429
:101D8000610F9A01AB0160E472E48FE090E00E9481
:101D900054192051310941095109569547953795F4
:101DA00027952093B800089581E0809318026093EE
:101DB0003B0210921A021092190208950C94D40E4C
:101DC0000F93062F21E0409119026BE172E08091A0
:101DD0003B020E94C70F10921A0210921902109231
:101DE00018020F9108958F929F92AF92BF92CF9257
:101DF000DF92EF92FF920F931F93CF93DF93EC014B
:101E0000F62ED42E48015901EE2019F10E94D40E6D
:101E10001E2D143008F013E01150B8F0E881F9815C
:101E200028E0129FB0011124A501940104C0569529
:101E30004795379527956A95D2F7CA01B901019060
:101E4000F081E02DCE010995E7CF60E0CE010E9440
:101E5000E00E4D2D413208F040E22C2D6EE372E091
:101E60008F2D0E947F0F10923D0280933C02DF91E4
:101E7000CF911F910F91FF90EF90DF90CF90BF9087
:101E8000AF909F908F900895CF92EF920F931F93F2
:101E9000C22EE12C00E010E098010E94F30E1F9189
:101EA0000F91EF90CF90089521E00C94440F21E022
:101EB0000C94440F61E00C94E00E8CE092E00C94E2
:101EC000A70E1092CB0281E08093C9021092C80243
:101ED00061E082E10E94291361E083E10E942913FD
:101EE000E9EBF0E080818E7F808380818D7F80832D
:101EF0008DEF8093B80085E48093BC000895413253
:101F000008F043C09091CB029111FCCF91E09093E7
:101F1000CB022093C9022FEF20935E021092A302FE
:101F2000240F2093A2029093CA029091CA02880FB4
:101F3000892B8093CA028091C802813061F410928B
:101F4000C8028091CA028093BB008091BC0083FDCF
:101F5000F8CF85EC01C085EE8093BC008091CB0268
:101F60008130E1F38091A302841710F44091A30221
:101F700024EA32E0FB01D9018A2F821B841718F46E
:101F80008D918193F9CF842F089580E008950F9368
:101F9000413208F04AC09091CB029111FCCF92E0FF
:101FA0009093CB020093C9029FEF90935E02109230
:101FB000A3024093A202FB0164EA72E0DB019A2FC4
:101FC000961B941718F491919D93F9CF1092CA0221
:101FD0009091CA02880F892B8093CA028091C8020F
:101FE000813061F41092C8028091CA028093BB00D4
:101FF0008091BC0083FDF8CF85EC01C085EE809315
:10200000BC00222321F08091CB028230E1F3809149
:102010005E028F3F61F080915E02803251F08091CC
:102020005E02803341F483E007C081E005C080E0B8
:1020300003C082E001C084E00F910895613298F4FA
:102040002091CB02243089F460938002FC0182E865
:1020500092E0DC012A2F281B261718F421912D93DA
:10206000F9CF80E0089581E0089582E0089585ED3C
:102070008093BC008091BC0084FDFCCF1092CB0209
:10208000089585EC8093BC001092CB0208951F92B6
:102090000F920FB60F9211242F933F934F935F939C
:1020A0006F937F938F939F93AF93BF93EF93FF9320
:1020B0008091B900887F803609F49EC078F5883217
:1020C00009F45DC090F4803109F456C038F48823D7
:1020D00009F4F5C0883009F44FC0F5C0883109F41F
:1020E0004EC0803209F45FC0EEC0803409F46AC08B
:1020F00058F4803309F457C0883309F0E4C0809362
:102100005E020E944110DFC0803509F44FC088355F
:1021100009F45DC0883409F0D6C0D3C0883909F409
:10212000C4C0A8F4883709F467C038F4883609F4C5
:1021300063C0803709F460C0C6C0883809F4B5C0F0
:10214000803909F45FC0803809F0BDC05BC0803BB6
:1021500009F483C038F4803A09F466C0883A09F477
:102160007CC0B1C0803C09F4A4C0883C09F4A1C083
:10217000883B09F487C0A7C08091CA0210C0909123
:10218000A3028091A202981770F5E091A30281E06A
:102190008E0F8093A302F0E0EC55FD4F8081809379
:1021A000BB0085EC83C080935E028BC0E091A302EC
:1021B00081E08E0F8093A3028091BB00F0E0EC558C
:1021C000FD4F80839091A3028091A2026BC0E091A9
:1021D000A30281E08E0F8093A3028091BB00F0E008
:1021E000EC55FD4F80838091C90281116AC081E066
:1021F0008093C80284EA5EC083E08093CB02109291
:102200005F02CFCF80915F02803208F04EC0E09134
:102210005F0281E08E0F80935F028091BB00F0E04F
:10222000E05AFD4F8083BDCF0E94411080915F0234
:10223000803230F4E0915F02F0E0E05AFD4F10820E
:1022400060915F0270E0E091C402F091C50280E607
:1022500092E0099510925F0236C084E08093CB0231
:102260001092810210928002E091C602F091C702A2
:10227000099580918002811105C081E080938002E0
:1022800010928202E091810281E08E0F80938102A0
:10229000F0E0EE57FD4F80818093BB00909181026A
:1022A00080918002981708F47CCF85E88093BC0069
:1022B0000AC085EC8093BC001092CB0204C010923F
:1022C0005E020E943710FF91EF91BF91AF919F91F5
:1022D0008F917F916F915F914F913F912F910F90CF
:1022E0000FBE0F901F90189508958230E8F4E82FE4
:1022F000F0E0EE0FFF1FED5FFE4F718360838130D2
:1023000041F0809169008C7F842B80936900E89A6A
:10231000089580916900440F551F440F551F837F16
:10232000842B80936900E99A08951F920F920FB64B
:102330000F9211242F933F934F935F936F937F934B
:102340008F939F93AF93BF93EF93FF93E09103011C
:10235000F09104010995FF91EF91BF91AF919F9189
:102360008F917F916F915F914F913F912F910F903E
:102370000FBE0F901F9018951F920F920FB60F92DD
:1023800011242F933F934F935F936F937F938F937A
:102390009F93AF93BF93EF93FF93E0910501F0916B
:1023A00006010995FF91EF91BF91AF919F918F9198
:1023B0007F916F915F914F913F912F910F900FBE41
:1023C0000F901F9018951F920F920FB60F92112425
:1023D0002F933F938F939F93AF93BF938091CD02A1
:1023E0009091CE02A091CF02B091D0023091CC0258
:1023F00020E3230F2D3720F44096A11DB11D05C009
:1024000023EB230F4196A11DB11D2093CC02809395
:10241000CD029093CE02A093CF02B093D0028091D0
:10242000D1029091D202A091D302B091D402019630
:10243000A11DB11D8093D1029093D202A093D3022B
:10244000B093D402BF91AF919F918F913F912F9103
:102450000F900FBE0F901F9018952FB7F8946091B2
:10246000CD027091CE028091CF029091D0022FBF09
:1024700008953FB7F8948091D1029091D202A09133
:10248000D302B091D40226B5A89B05C02F3F19F006
:102490000196A11DB11D3FBF6627782F892F9A2F66
:1024A000620F711D811D911D46E0660F771F881F09
:1024B000991F4A95D1F70895CF92DF92EF92FF923C
:1024C000CF93DF936B017C010E943912EB01C114A1
:1024D000D104E104F10489F00E9453190E943912D9
:1024E0006C1B7D0B683E734090F381E0C81AD108E5
:1024F000E108F108C851DC4FEACFDF91CF91FF909E
:10250000EF90DF90CF9008958A31910538F046978B
:1025100096958795969587950197F1F70895789404
:1025200084B5826084BD84B5816084BD85B58260D8
:1025300085BD85B5816085BDEEE6F0E08081816076
:102540008083E1E8F0E01082808182608083E0E8AF
:10255000F0E0808181608083E1EBF0E08081846045
:102560008083E0EBF0E0808181608083EAE7F0E047
:1025700080818B7F80838081826080838081816085
:1025800080838081806880831092C10008958330A9
:1025900081F028F4813099F08230A1F008958730DD
:1025A000A9F08830B9F08430D1F4809180008F7D1B
:1025B00003C0809180008F7780938000089584B558
:1025C0008F7702C084B58F7D84BD08958091B0005F
:1025D0008F7703C08091B0008F7D8093B000089505
:1025E000CF93DF9390E0FC01E256FF4F2491FC0172
:1025F000EE54FF4F8491882349F190E0880F991F92
:10260000FC01E652FF4FA591B49180539F4FFC010E
:10261000C591D4919FB7611108C0F8948C91209511
:1026200082238C93888182230AC0623051F4F8940B
:102630008C91322F309583238C938881822B8883D1
:1026400004C0F8948C91822B8C939FBFDF91CF9123
:1026500008950F931F93CF93DF931F92CDB7DEB7EB
:10266000282F30E0F901E657FF4F8491F901E25637
:10267000FF4F1491F901EE54FF4F04910023C9F06C
:10268000882321F069830E94C7126981E02FF0E05E
:10269000EE0FFF1FE053FF4FA591B4919FB7F89441
:1026A0008C91611103C01095812301C0812B8C9303
:1026B0009FBF0F90DF91CF911F910F910895CF93FE
:1026C000DF93282F30E0F901E657FF4F8491F9019D
:1026D000E256FF4FD491F901EE54FF4FC491CC2341
:1026E00091F081110E94C712EC2FF0E0EE0FFF1F56
:1026F000EA53FF4FA591B4912C912D2381E090E0F6
:1027000021F480E002C080E090E0DF91CF91089555
:10271000FC01818D228D90E0805C9F4F821B91098E
:102720008F7399270895FC01918D828D981731F050
:10273000828DE80FF11D858D90E008958FEF9FEF5A
:102740000895FC01918D828D981761F0828DDF01D3
:10275000A80FB11D5D968C91928D9F5F9F73928F94
:1027600090E008958FEF9FEF08958FE195E1892B19
:1027700049F080E090E0892B29F00E941F1581111B
:102780000C9400000895FC01848DDF01A80FB11D99
:10279000A35ABF4F2C91848D90E001968F73992797
:1027A000848FA689B7892C93A089B1898C91806484
:1027B0008C93938D848D981306C00288F389E02D45
:1027C00080818F7D80830895CF93DF93EC01888D86
:1027D0008823C9F0EA89FB89808185FD05C0A88925
:1027E000B9898C9186FD0FC00FB607FCF5CF8081AB
:1027F00085FFF2CFA889B9898C9185FFEDCFCE01F5
:102800000E94C313E7CFDF91CF910895CF92DF925B
:10281000FF920F931F93CF93DF931F92CDB7DEB735
:102820006C0181E0D60158968C9358975B969C91E9
:102830005B975C968C915C97981307C05096ED91CE
:10284000FC915197808185FD2EC0F601038D10E02B
:102850000F5F1F4F0F731127F02EF601848DF812B2
:1028600011C00FB607FCF9CFD6015096ED91FC913F
:102870005197808185FFF1CFC60169830E94C31300
:102880006981EBCF838DE80FF11DE35AFF4F608321
:10289000D6015B960C935B975296ED91FC91539702
:1028A000808180620CC0D6015696ED91FC915797BD
:1028B00060835096ED91FC91519780818064808374
:1028C00081E090E00F90DF91CF911F910F91FF90E9
:1028D000DF90CF900895BF92CF92DF92EF92FF9258
:1028E000CF93DF93EC016A017B01B22E60E970EDBA
:1028F00083E090E0A70196010E945419215031090C
:10290000410951095695479537952795E889F989E1
:1029100082E08083211580E1380798F0E889F98901
:10292000108268E478EE81E090E0A70196010E94B1
:102930005419215031094109510956954795379548
:102940002795EC85FD853083EE85FF852083188EE5
:10295000EC89FD89B082EA89FB898081806180836E
:10296000EA89FB89808188608083EA89FB8980818C
:1029700080688083EA89FB8980818F7D8083DF91F5
:10298000CF91FF90EF90DF90CF90BF9008951F926E
:102990000F920FB60F9211242F938F939F93EF9363
:1029A000FF93E091E502F091E6028081E091EB0275
:1029B000F091EC0282FD12C090818091EE028F5F57
:1029C0008F732091EF02821751F0E091EE02F0E058
:1029D000EB52FD4F958F8093EE0201C08081FF91F5
:1029E000EF919F918F912F910F900FBE0F901F909D
:1029F00018951F920F920FB60F9211242F933F93A9
:102A00004F935F936F937F938F939F93AF93BF93F6
:102A1000EF93FF9385ED92E00E94C313FF91EF9136
:102A2000BF91AF919F918F917F916F915F914F91E6
:102A30003F912F910F900FBE0F901F90189585ED2D
:102A400092E00E94881321E0892B09F420E0822F74
:102A500008951092D8021092D70288EE93E0A0E079
:102A6000B0E08093D9029093DA02A093DB02B09396
:102A7000DC0289EB91E09093D6028093D50285EC3D
:102A800090E09093E2028093E10284EC90E09093D6
:102A9000E4028093E30280EC90E09093E60280935E
:102AA000E50281EC90E09093E8028093E70282ECEB
:102AB00090E09093EA028093E90286EC90E0909394
:102AC000EC028093EB021092EE021092EF02109251
:102AD000F0021092F1020895CF92DF92EF92FF92EE
:102AE0000F931F93CF93DF937C016A01EB0100E00A
:102AF00010E00C151D0571F06991D701ED91FC9165
:102B00000190F081E02DC7010995892B19F00F5F25
:102B10001F4FEFCFC801DF91CF911F910F91FF9011
:102B2000EF90DF90CF9008956115710581F0DB0182
:102B30000D900020E9F7AD0141505109461B570B9C
:102B4000DC01ED91FC910280F381E02D099480E09D
:102B500090E008950C949415DC01ED91FC910190A6
:102B6000F081E02D099465EC71E00C9494150F93BD
:102B70001F93CF93DF93EC010E9494158C01CE013B
:102B80000E94B315800F911FDF91CF911F910F917C
:102B900008958F929F92AF92BF92CF92DF92EF9261
:102BA000FF920F931F93CF93DF93CDB7DEB7A1971B
:102BB0000FB6F894DEBF0FBECDBF7C01C42EE52F4B
:102BC000CB01D22E19A221E02D1510F02AE0D22E31
:102BD0008E010F5D1F4F8D2C912CA12CB12C6C2DD3
:102BE0007E2FA50194010E9454198C2DD29E80192C
:102BF0001124015011098A3014F4805D01C0895CF0
:102C0000F8018083211531054105510521F0C22EBF
:102C1000E32FCA01E4CFB801C7010E949415A19621
:102C20000FB6F894DEBF0FBECDBFDF91CF911F91DD
:102C30000F91FF90EF90DF90CF90BF90AF909F905B
:102C40008F900895CF92DF92EF92FF920F931F9390
:102C5000CF93DF93EC016A017B012115310579F4F3
:102C6000E881F9810190F081E02D642FDF91CF910F
:102C70001F910F91FF90EF90DF90CF9009942A3031
:102C80003105E9F477FF1AC06DE20E94AC158C01A2
:102C900044275527BA014C195D096E097F092AE0BE
:102CA000CE010E94C915800F911FDF91CF911F9116
:102CB0000F91FF90EF90DF90CF9008952AE0B70139
:102CC000A601CE01DF91CF911F910F91FF90EF9060
:102CD000DF90CF900C94C9150F931F93CF93DF9380
:102CE000EC019A01AB01662757FD6095762F0E9493
:102CF00022168C01CE010E94B315800F911FDF9127
:102D0000CF911F910F9108952115310541F4DC01F8
:102D1000ED91FC910190F081E02D642F09940C94C9
:102D2000C9150F931F93CF93DF93EC019A01AB0169
:102D300060E070E00E9484168C01CE010E94B31501
:102D4000800F911FDF91CF911F910F9108953F92B6
:102D50004F925F926F927F928F929F92AF92BF92AB
:102D6000CF92DF92EF92FF920F931F93CF93DF9357
:102D700000D000D0CDB7DEB78B0129833A834B83D7
:102D80005C8390910701981721F09F3F09F0D4C10F
:102D900004C0E4EEF0E0349081C080930701E4EEDB
:102DA000F0E0E491EF3F09F4C7C1E13031F1E230E6
:102DB00009F44BC0E11171C014BC15BC94B592600C
:102DC00094BD95B5916095BD282F30E0F901EE5482
:102DD000FF4FE491F0E0EE0FFF1FE053FF4F4591EE
:102DE00054915093820340938103F901E256FF4FBF
:102DF000249120938003312C53C0109280001092B4
:102E00008100909181009860909381009091810061
:102E1000916090938100282F30E0F901EE54FF4F2C
:102E2000E491F0E0EE0FFF1FE053FF4F4591549106
:102E300050937B0340937A03F901E256FF4F2491AC
:102E400020937903332433942BC01092B000109256
:102E5000B1009091B00092609093B0009091B10059
:102E600091609093B100282F30E0F901EE54FF4FAC
:102E7000E491F0E0EE0FFF1FE053FF4F45915491B6
:102E80005093740340937303F901E256FF4F24916A
:102E90002093720372E0372E03C03E2E37FC4CC1E4
:102EA00061E00E94F0122801612C712C832D8D7F2E
:102EB00009F0BDC060E271EA87E090E0A3019201F1
:102EC0000E94761949015A0169017A0181E0C81A04
:102ED000D108E108F1089FEFC916D104E104F1041B
:102EE00009F008F492C064E274EF80E090E0A3017E
:102EF00092010E94761969017A01A1E0CA1AD108EB
:102F0000E108F108B2E03B1219C0EFEFCE16D10490
:102F1000E104F10409F008F482C069E07DE380E097
:102F200090E0A30192010E94761969017A01F1E013
:102F3000CF1AD108E108F10883E001C082E09FEFD9
:102F4000C916D104E104F10409F008F45FC0750169
:102F5000640156E0F594E794D794C7945A95D1F755
:102F6000A1E0CA1AD108E108F1083320D9F0B2E093
:102F70003B121AC0EFEFCE16D104E104F10409F0C0
:102F800008F4D8C07501640147E0F594E794D7943C
:102F9000C7944A95D1F7F1E0CF1AD108E108F108BA
:102FA00085E003C083E001C084E09FEFC916D1042F
:102FB000E104F10459F150F1FF24B7FCFA94EB2C31
:102FC000DA2CC92CA1E0CA1AD108E108F1083110A5
:102FD00002C084E001C086E0BFEFCB16D104E1045B
:102FE000F104A1F098F0750164012AE0F594E794EA
:102FF000D794C7942A95D1F7E1E0CE1AD108E10819
:10300000F108332031F087E00BC081E0332011F06C
:1030100007C085E095B5987F982B95BD37C082E0B5
:103020009091B100987F982B9093B1002FC060E2EF
:1030300071EA87E090E0A30192010E94761969018C
:103040007A01F1E0CF1AD108E108F108C114D104E6
:1030500081E0E806F10480F069017A0196E0F594D8
:10306000E794D794C7949A95D1F791E0C91AD108FB
:10307000E108F10893E001C091E0A1E03A1206C036
:1030800080918100887F892B8093810089819A813A
:10309000AB81BC81892B8A2B8B2B81F0D801AA0FA5
:1030A000BB1F29813A814B815C810E949B1928EECC
:1030B00033E040E050E00E94541903C02FEF3FEF8F
:1030C000A90191E03916A1F0A2E03A1619F13110E8
:1030D00033C0C7BC2093830330938403409385039C
:1030E0005093860380916E00826080936E0024C0AE
:1030F000D0928900C092880020937C0330937D0396
:1031000040937E0350937F0380916F008260809391
:103110006F0012C0C092B300209375033093760302
:10312000409377035093780380917000826080937E
:10313000700002C084E074CF0F900F900F900F903A
:10314000DF91CF911F910F91FF90EF90DF90CF9083
:10315000BF90AF909F908F907F906F905F904F90B7
:103160003F900895813039F018F0823051F0089581
:1031700010926E00089580916F008D7F80936F0094
:103180000895809170008D7F8093700081E080931E
:10319000B0008091B100887F84608093B10010926C
:1031A000B3000895CF93C82F809107018C1307C0F7
:1031B000E4EEF0E084919FEF9093070101C08FEF60
:1031C0000E94B21860E08C2FCF910C9429131F92AB
:1031D0000F920FB60F9211242F933F934F935F934B
:1031E0006F937F938F939F93AF93BF93EF93FF93CF
:1031F0008091750390917603A0917703B091780345
:10320000892B8A2B8B2B51F190917203E0917303E0
:10321000F091740380818927808380917503909158
:103220007603A0917703B0917803181619061A0651
:103230001B06C4F48091750390917603A0917703E7
:10324000B09178030197A109B10980937503909318
:103250007603A0937703B093780304C080910701AD
:103260000E94D218FF91EF91BF91AF919F918F91E2
:103270007F916F915F914F913F912F910F900FBE72
:103280000F901F90189508950E948F120E94431965
:103290000E94DA01C5EBD3E10E9408032097E1F315
:1032A0000E94B513F9CF0895A1E21A2EAA1BBB1BE9
:1032B000FD010DC0AA1FBB1FEE1FFF1FA217B30702
:1032C000E407F50720F0A21BB30BE40BF50B661F18
:1032D000771F881F991F1A9469F7609570958095DC
:1032E00090959B01AC01BD01CF010895052E97FB80
:1032F0001EF400940E948D1957FD07D00E945419A6
:1033000007FC03D04EF40C948D19509540953095E0
:1033100021953F4F4F4F5F4F089590958095709541
:1033200061957F4F8F4F9F4F0895EE0FFF1F0590C0
:10333000F491E02D09940E94A619A59F900DB49FC9
:10334000900DA49F800D911D11240895A29FB0019E
:10335000B39FC001A39F700D811D1124911DB29FC9
:10336000700D811D1124911D0895F999FECF92BD14
:1033700081BDF89A992780B50895262FF999FECF37
:103380001FBA92BD81BD20BD0FB6F894FA9AF99A82
:0A3390000FBE01960895F894FFCFD8
:10339A00015E0174117411FF5B57414B452062793C
:1033AA00205454505D003D3D3D3D3D3D3D3D3D3D3C
:1033BA003D3D3D3D3D3D3D3D3D3D3D3D3D3D3D3D33
:1033CA00003D3D202050544A3720546F74616C20D0
:1033DA0050726F6772616D20203D3D002D2045457A
:1033EA0050616C61726D2E616C61726D4C657665AF
:1033FA006C203D20002D2055706461746545455050
:10340A00616C61726D2E616C61726D4C6576656C72
:10341A00203D20002D20616C61726D4C6576656CD3
:10342A00203D2000564C35332054494D454F5554C4
:10343A00002D002B0000000000780E4B0E200E28F5
:10344A000E3B0E4A0E0000000006146C158813A1EC
:10345A00139313E4130D0A006E616E00696E660021
:06346A006F7666002E00E3
:107800000C94343C0C94513C0C94513C0C94513CE1
:107810000C94513C0C94513C0C94513C0C94513CB4
:107820000C94513C0C94513C0C94513C0C94513CA4
:107830000C94513C0C94513C0C94513C0C94513C94
:107840000C94513C0C94513C0C94513C0C94513C84
:107850000C94513C0C94513C0C94513C0C94513C74
:107860000C94513C0C94513C11241FBECFEFD8E036
:10787000DEBFCDBF11E0A0E0B1E0EAE8FFE702C063
:1078800005900D92A230B107D9F712E0A2E0B1E065
:1078900001C01D92AD30B107E1F70E942D3D0C945F
:1078A000C33F0C94003C982F95959595959595958B
:1078B000905D8F708A307CF0282F295A8091C0000B
:1078C00085FFFCCF9093C6008091C00085FFFCCF60
:1078D0002093C6000895282F205DF0CF982F809127
:1078E000C00085FFFCCF9093C6000895EF92FF92F1
:1078F0000F931F93EE24FF2487018091C00087FD22
:1079000017C00894E11CF11C011D111D81E2E8164D
:1079100081EAF80687E0080780E0180770F3E09135
:107920000401F091050109958091C00087FFE9CF1E
:107930008091C6001F910F91FF90EF9008950E94D3
:10794000763C982F8091C00085FFFCCF9093C600B5
:1079500091362CF490330CF09053892F089597555D
:10796000892F08951F930E949F3C182F0E949F3CCF
:107970001295107F810F1F9108951F93182F882350
:1079800021F00E94763C1150E1F71F9108951F935A
:10799000182F0E94763C803249F0809103018F5F5E
:1079A000809303018530C1F01F9108958091C0003C
:1079B00085FFFCCF84E18093C6008091C00085FFE5
:1079C000FCCF1093C6008091C00085FFFCCF80E102
:1079D0008093C6001F910895E0910401F091050184
:1079E00009951F9108950E94763C803241F0809164
:1079F00003018F5F80930301853081F008958091AA
:107A0000C00085FFFCCF84E18093C6008091C00058
:107A100085FFFCCF80E18093C6000895E0910401CA
:107A2000F09105010995089548EC50E08823A1F0F4
:107A30002D9A28EE33E0FA013197F1F721503040CA
:107A4000D1F72D9828EE33E0FA013197F1F7215064
:107A50003040D1F7815061F708953F924F925F9285
:107A60006F927F928F929F92AF92BF92CF92DF924E
:107A7000EF92FF920F931F93CF93DF93000082E06A
:107A80008093C00080E18093C4001092C50088E11B
:107A90008093C10086E08093C2005098589A259A3E
:107AA00081E00E94143D24E1F22E9EE1E92E85E959
:107AB000D82E0FE0C02E10E1B12EAA24A394B1E479
:107AC0009B2EA6E58A2EF2E57F2EE0E26E2E79E46B
:107AD000572E63E5462E50E5352E0E94763C8033C6
:107AE000B1F18133B9F1803409F46FC0813409F404
:107AF00076C0823409F485C0853409F488C08035A5
:107B000031F1823521F1813511F1853509F485C0D6
:107B1000863509F48DC0843609F496C0843709F49B
:107B200003C1853709F472C1863709F466C08091B4
:107B300003018F5F80930301853079F6E0910401A2
:107B4000F091050109950E94763C803351F60E9420
:107B5000F33CC3CF0E94763C803249F78091C0004D
:107B600085FFFCCFF092C6008091C00085FFFCCF5E
:107B70009092C6008091C00085FFFCCF8092C60025
:107B80008091C00085FFFCCF7092C6008091C0003C
:107B900085FFFCCF6092C6008091C00085FFFCCFBE
:107BA0005092C6008091C00085FFFCCF4092C60075
:107BB0008091C00085FFFCCF3092C6008091C0004C
:107BC00085FFFCCFB092C60088CF0E94763C8638F5
:107BD00008F4BDCF0E94763C0E94F33C7ECF0E9409
:107BE000763C803809F49CC0813809F40BC1823896
:107BF00009F430C1883909F48FC080E00E94C73C85
:107C00006CCF84E10E94BD3C0E94F33C66CF85E0CE
:107C10000E94BD3C0E94F33C60CF0E94763C809362
:107C200006010E94763C809307010E94F33C55CFE9
:107C30000E94763C803309F411C183E00E94BD3C70
:107C400080E00E94C73C49CF0E94763C80930902A5
:107C50000E94763C8093080280910C028E7F809374
:107C60000C020E94763C853409F409C18091080217
:107C700090910902892B89F000E010E00E94763C87
:107C8000F801E85FFE4F80830F5F1F4F809108026D
:107C9000909109020817190788F30E94763C8032F8
:107CA00009F045CF80910C0280FFF5C0609106017C
:107CB00070910701660F771F7093070160930601AB
:107CC000A0910802B09109021097C9F0E8E0F1E034
:107CD0009B01AD014E0F5F1FF999FECF32BD21BD53
:107CE000819180BDFA9AF99A2F5F3F4FE417F5070B
:107CF00099F76A0F7B1F70930701609306018091CB
:107D0000C00085FFFCCFF092C6008091C00085FFC7
:107D1000FCCFB092C600E1CE83E00E94C73CDDCE2E
:107D200082E00E94C73CD9CE0E94763C8093090233
:107D30000E94763C80930802809106019091070191
:107D4000880F991F90930701809306010E94763C4B
:107D5000853409F49AC080910C028E7F80930C02C6
:107D60000E94763C803209F0B8CE8091C00085FF39
:107D7000FCCFF092C600A0910802B09109021097C2
:107D8000C1F180910C02082F0170182F1695117007
:107D9000E0910601F0910701AF014F5F5F4FBA011B
:107DA00020E030E00023B1F4112339F49491809164
:107DB000C00085FFFCCF9093C6002F5F3F4FCB01E3
:107DC0000196FA012A173B0780F4BC014F5F5F4F11
:107DD000002351F3F999FECFF2BDE1BDF89A90B5B9
:107DE0008091C00085FFFCCFE6CF709307016093C0
:107DF00006018091C00085FDE5CE8091C00085FF21
:107E0000F8CFE0CE81E00E94C73C67CE0E94763C6E
:107E1000803209F08CCE8091C00085FFFCCFF092BB
:107E2000C6008091C00085FFFCCFE092C600809123
:107E3000C00085FFFCCFD092C6008091C00085FFB6
:107E4000FCCFC092C6008091C00085FFFCCFB092ED
:107E5000C60043CE80E10E94C73C3FCE0E94763CE4
:107E60000E94763C182F0E94763C112309F483C0AF
:107E7000113009F484C08FE00E94C73C2ECE80915F
:107E80000C02816080930C02F1CE80910C02816023
:107E900080930C0265CF809107018823880F880B9F
:107EA0008A2180930B028091060190910701880F2F
:107EB000991F90930701809306018091080280FF2B
:107EC00009C08091080290910902019690930902DD
:107ED00080930802F894F999FECF1127E0910601EA
:107EE000F0910701C8E0D1E0809108029091090269
:107EF000103091F40091570001700130D9F303E084
:107F000000935700E8950091570001700130D9F3B4
:107F100001E100935700E8950990199000915700EE
:107F200001700130D9F301E000935700E8951395F3
:107F3000103498F011270091570001700130D9F3E7
:107F400005E000935700E89500915700017001305B
:107F5000D9F301E100935700E8953296029709F0B2
:107F6000C7CF103011F00296E5CF11248091C000E8
:107F700085FFC5CEC8CE8EE10E94C73CAECD85E957
:0A7F80000E94C73CAACDF894FFCF81
:027F8A00800075
:040000030000780081
:00000001FF
